{
  "contractName": "Access_Control_Contract",
  "abi": [
    {
      "inputs": [],
      "payable": false,
      "stateMutability": "nonpayable",
      "type": "constructor"
    },
    {
      "constant": true,
      "inputs": [
        {
          "internalType": "address",
          "name": "",
          "type": "address"
        }
      ],
      "name": "patients",
      "outputs": [
        {
          "internalType": "bytes32",
          "name": "filename",
          "type": "bytes32"
        },
        {
          "internalType": "uint256",
          "name": "encr_smk",
          "type": "uint256"
        },
        {
          "internalType": "uint256",
          "name": "id",
          "type": "uint256"
        },
        {
          "internalType": "bool",
          "name": "read_permit",
          "type": "bool"
        },
        {
          "internalType": "bool",
          "name": "write_permit",
          "type": "bool"
        },
        {
          "internalType": "address",
          "name": "_address",
          "type": "address"
        }
      ],
      "payable": false,
      "stateMutability": "view",
      "type": "function"
    },
    {
      "constant": true,
      "inputs": [
        {
          "internalType": "address",
          "name": "",
          "type": "address"
        }
      ],
      "name": "providers",
      "outputs": [
        {
          "internalType": "bytes32",
          "name": "filename",
          "type": "bytes32"
        },
        {
          "internalType": "uint256",
          "name": "encr_smk",
          "type": "uint256"
        },
        {
          "internalType": "uint256",
          "name": "id",
          "type": "uint256"
        },
        {
          "internalType": "bool",
          "name": "read_permit",
          "type": "bool"
        },
        {
          "internalType": "bool",
          "name": "write_permit",
          "type": "bool"
        },
        {
          "internalType": "address",
          "name": "_address",
          "type": "address"
        }
      ],
      "payable": false,
      "stateMutability": "view",
      "type": "function"
    },
    {
      "constant": false,
      "inputs": [
        {
          "internalType": "bytes32",
          "name": "_filename",
          "type": "bytes32"
        },
        {
          "internalType": "address",
          "name": "_addr",
          "type": "address"
        }
      ],
      "name": "assignPermission",
      "outputs": [
        {
          "internalType": "enum Access_Control_Contract.ownership",
          "name": "",
          "type": "uint8"
        }
      ],
      "payable": true,
      "stateMutability": "payable",
      "type": "function"
    },
    {
      "constant": false,
      "inputs": [
        {
          "internalType": "bytes32",
          "name": "_filename",
          "type": "bytes32"
        },
        {
          "internalType": "uint256",
          "name": "id",
          "type": "uint256"
        }
      ],
      "name": "assignPermission",
      "outputs": [
        {
          "internalType": "enum Access_Control_Contract.ownership",
          "name": "",
          "type": "uint8"
        }
      ],
      "payable": true,
      "stateMutability": "payable",
      "type": "function"
    },
    {
      "constant": false,
      "inputs": [
        {
          "internalType": "address",
          "name": "_addr",
          "type": "address"
        }
      ],
      "name": "isReadQualified",
      "outputs": [
        {
          "internalType": "bool",
          "name": "",
          "type": "bool"
        }
      ],
      "payable": true,
      "stateMutability": "payable",
      "type": "function"
    },
    {
      "constant": false,
      "inputs": [
        {
          "internalType": "address",
          "name": "_addr",
          "type": "address"
        }
      ],
      "name": "isOwnQualified",
      "outputs": [
        {
          "internalType": "bool",
          "name": "",
          "type": "bool"
        }
      ],
      "payable": true,
      "stateMutability": "payable",
      "type": "function"
    },
    {
      "constant": false,
      "inputs": [
        {
          "internalType": "address",
          "name": "_addr",
          "type": "address"
        }
      ],
      "name": "isExtraQualified",
      "outputs": [
        {
          "internalType": "bool",
          "name": "",
          "type": "bool"
        }
      ],
      "payable": true,
      "stateMutability": "payable",
      "type": "function"
    },
    {
      "constant": false,
      "inputs": [
        {
          "internalType": "address",
          "name": "_addr",
          "type": "address"
        }
      ],
      "name": "isBlReadQualified",
      "outputs": [
        {
          "internalType": "bool",
          "name": "",
          "type": "bool"
        }
      ],
      "payable": true,
      "stateMutability": "payable",
      "type": "function"
    },
    {
      "constant": false,
      "inputs": [
        {
          "internalType": "address",
          "name": "_pradd",
          "type": "address"
        },
        {
          "internalType": "enum Access_Control_Contract.ownership",
          "name": "prown",
          "type": "uint8"
        }
      ],
      "name": "newAccessLevel",
      "outputs": [
        {
          "internalType": "enum Access_Control_Contract.status",
          "name": "prot",
          "type": "uint8"
        },
        {
          "internalType": "bool",
          "name": "_given",
          "type": "bool"
        }
      ],
      "payable": true,
      "stateMutability": "payable",
      "type": "function"
    },
    {
      "constant": false,
      "inputs": [
        {
          "internalType": "address",
          "name": "_pradA",
          "type": "address"
        },
        {
          "internalType": "address",
          "name": "_pradB",
          "type": "address"
        }
      ],
      "name": "readfromAnother",
      "outputs": [
        {
          "internalType": "enum Access_Control_Contract.status",
          "name": "_prot",
          "type": "uint8"
        },
        {
          "internalType": "uint256",
          "name": "_key",
          "type": "uint256"
        }
      ],
      "payable": true,
      "stateMutability": "payable",
      "type": "function"
    }
  ],
  "bytecode": "0x60806040526000600760006101000a81548160ff0219169083151502179055506000600760016101000a81548160ff02191690831515021790555034801561004657600080fd5b5033600260046101000a81548173ffffffffffffffffffffffffffffffffffffffff021916908373ffffffffffffffffffffffffffffffffffffffff1602179055506110c2806100976000396000f3fe6080604052600436106100915760003560e01c80633d80480a116100595780633d80480a146103365780635f59070a1461039057806378cb90d6146103ec578063f160f9e614610448578063fac32c52146104d557610091565b80630787bc27146100965780630869cfbc146101525780631cd9ab7d1461020e57806322bf67471461027e5780632b1f47ca146102da575b600080fd5b3480156100a257600080fd5b506100e5600480360360208110156100b957600080fd5b81019080803573ffffffffffffffffffffffffffffffffffffffff169060200190929190505050610553565b6040518087815260200186815260200185815260200184151515158152602001831515151581526020018273ffffffffffffffffffffffffffffffffffffffff1673ffffffffffffffffffffffffffffffffffffffff168152602001965050505050505060405180910390f35b34801561015e57600080fd5b506101a16004803603602081101561017557600080fd5b81019080803573ffffffffffffffffffffffffffffffffffffffff1690602001909291905050506105c9565b6040518087815260200186815260200185815260200184151515158152602001831515151581526020018273ffffffffffffffffffffffffffffffffffffffff1673ffffffffffffffffffffffffffffffffffffffff168152602001965050505050505060405180910390f35b61025a6004803603604081101561022457600080fd5b8101908080359060200190929190803573ffffffffffffffffffffffffffffffffffffffff16906020019092919050505061063f565b6040518082600481111561026a57fe5b60ff16815260200191505060405180910390f35b6102c06004803603602081101561029457600080fd5b81019080803573ffffffffffffffffffffffffffffffffffffffff1690602001909291905050506108f7565b604051808215151515815260200191505060405180910390f35b61031c600480360360208110156102f057600080fd5b81019080803573ffffffffffffffffffffffffffffffffffffffff1690602001909291905050506109c6565b604051808215151515815260200191505060405180910390f35b61036c6004803603604081101561034c57600080fd5b810190808035906020019092919080359060200190929190505050610a95565b6040518082600481111561037c57fe5b60ff16815260200191505060405180910390f35b6103d2600480360360208110156103a657600080fd5b81019080803573ffffffffffffffffffffffffffffffffffffffff169060200190929190505050610c21565b604051808215151515815260200191505060405180910390f35b61042e6004803603602081101561040257600080fd5b81019080803573ffffffffffffffffffffffffffffffffffffffff169060200190929190505050610cef565b604051808215151515815260200191505060405180910390f35b6104aa6004803603604081101561045e57600080fd5b81019080803573ffffffffffffffffffffffffffffffffffffffff169060200190929190803573ffffffffffffffffffffffffffffffffffffffff169060200190929190505050610dbe565b604051808360058111156104ba57fe5b60ff1681526020018281526020019250505060405180910390f35b610524600480360360408110156104eb57600080fd5b81019080803573ffffffffffffffffffffffffffffffffffffffff169060200190929190803560ff169060200190929190505050610e97565b6040518083600581111561053457fe5b60ff168152602001821515151581526020019250505060405180910390f35b60016020528060005260406000206000915090508060000154908060010154908060020154908060030160009054906101000a900460ff16908060030160019054906101000a900460ff16908060030160029054906101000a900473ffffffffffffffffffffffffffffffffffffffff16905086565b60006020528060005260406000206000915090508060000154908060010154908060020154908060030160009054906101000a900460ff16908060030160019054906101000a900460ff16908060030160029054906101000a900473ffffffffffffffffffffffffffffffffffffffff16905086565b600060036000015483141561070c576003800160029054906101000a900473ffffffffffffffffffffffffffffffffffffffff1673ffffffffffffffffffffffffffffffffffffffff168273ffffffffffffffffffffffffffffffffffffffff16141561070b576005600260006101000a81548160ff021916908360058111156106c557fe5b021790555060016002806101000a81548160ff021916908360048111156106e857fe5b021790555060016003800160006101000a81548160ff0219169083151502179055505b5b6003800160029054906101000a900473ffffffffffffffffffffffffffffffffffffffff1673ffffffffffffffffffffffffffffffffffffffff168273ffffffffffffffffffffffffffffffffffffffff1614156107e6576005600260006101000a81548160ff0219169083600581111561078357fe5b021790555060006002806101000a81548160ff021916908360048111156107a657fe5b021790555060016003800160006101000a81548160ff02191690831515021790555060016003800160016101000a81548160ff0219169083151502179055505b6003800160029054906101000a900473ffffffffffffffffffffffffffffffffffffffff1673ffffffffffffffffffffffffffffffffffffffff168273ffffffffffffffffffffffffffffffffffffffff161415801561089657506003800160029054906101000a900473ffffffffffffffffffffffffffffffffffffffff1673ffffffffffffffffffffffffffffffffffffffff168273ffffffffffffffffffffffffffffffffffffffff1614155b156108e7576005600260006101000a81548160ff021916908360058111156108ba57fe5b021790555060028060026101000a81548160ff021916908360048111156108dd57fe5b02179055506108f0565b600390506108f1565b5b92915050565b600080600090506003800160029054906101000a900473ffffffffffffffffffffffffffffffffffffffff1673ffffffffffffffffffffffffffffffffffffffff168373ffffffffffffffffffffffffffffffffffffffff1614801561098257506002600481111561096557fe5b600260039054906101000a900460ff16600481111561098057fe5b145b80156109b357506003600581111561099657fe5b600260009054906101000a900460ff1660058111156109b157fe5b145b156109bd57600190505b80915050919050565b600080600090506003800160029054906101000a900473ffffffffffffffffffffffffffffffffffffffff1673ffffffffffffffffffffffffffffffffffffffff168373ffffffffffffffffffffffffffffffffffffffff16148015610a51575060036004811115610a3457fe5b6002809054906101000a900460ff166004811115610a4e57fe5b14155b8015610a82575060036005811115610a6557fe5b600260009054906101000a900460ff166005811115610a8057fe5b145b15610a8c57600190505b80915050919050565b6000600360000154831415610b1757600360020154821415610b16576005600260006101000a81548160ff02191690836005811115610ad057fe5b021790555060016002806101000a81548160ff02191690836004811115610af357fe5b021790555060016003800160006101000a81548160ff0219169083151502179055505b5b600360020154821415610ba6576005600260006101000a81548160ff02191690836005811115610b4357fe5b021790555060006002806101000a81548160ff02191690836004811115610b6657fe5b021790555060016003800160006101000a81548160ff02191690831515021790555060016003800160016101000a81548160ff0219169083151502179055505b6003600201548214158015610bc057506003600201548214155b15610c11576005600260006101000a81548160ff02191690836005811115610be457fe5b021790555060028060026101000a81548160ff02191690836004811115610c0757fe5b0217905550610c1a565b60039050610c1b565b5b92915050565b600080600090506003800160029054906101000a900473ffffffffffffffffffffffffffffffffffffffff1673ffffffffffffffffffffffffffffffffffffffff168373ffffffffffffffffffffffffffffffffffffffff16148015610cab5750600480811115610c8e57fe5b600260039054906101000a900460ff166004811115610ca957fe5b145b8015610cdc575060036005811115610cbf57fe5b600260009054906101000a900460ff166005811115610cda57fe5b145b15610ce657600190505b80915050919050565b600080600090506003800160029054906101000a900473ffffffffffffffffffffffffffffffffffffffff1673ffffffffffffffffffffffffffffffffffffffff168373ffffffffffffffffffffffffffffffffffffffff16148015610d7a575060006004811115610d5d57fe5b600260039054906101000a900460ff166004811115610d7857fe5b145b8015610dab575060036005811115610d8e57fe5b600260009054906101000a900460ff166005811115610da957fe5b145b15610db557600190505b80915050919050565b600080600260049054906101000a900473ffffffffffffffffffffffffffffffffffffffff1673ffffffffffffffffffffffffffffffffffffffff163373ffffffffffffffffffffffffffffffffffffffff1614610e1b57600080fd5b6000808473ffffffffffffffffffffffffffffffffffffffff168673ffffffffffffffffffffffffffffffffffffffff161415610e5757600080fd5b610e6086610c21565b9050600115158115151415610e8357610e7a856004610e97565b80935081955050505b836003600101549350935050509250929050565b600080600260049054906101000a900473ffffffffffffffffffffffffffffffffffffffff1673ffffffffffffffffffffffffffffffffffffffff163373ffffffffffffffffffffffffffffffffffffffff1614610ef457600080fd5b6000600190506003800160029054906101000a900473ffffffffffffffffffffffffffffffffffffffff1673ffffffffffffffffffffffffffffffffffffffff168573ffffffffffffffffffffffffffffffffffffffff16141561107d57600260039054906101000a900460ff166004811115610f6d57fe5b846004811115610f7957fe5b1461107c576000600260016101000a81548160ff02191690836005811115610f9d57fe5b02179055504260088190555060028060016101000a81548160ff02191690836005811115610fc757fe5b021790555060011515811515141561103c5783600260036101000a81548160ff02191690836004811115610ff757fe5b02179055506003600260016101000a81548160ff0219169083600581111561101b57fe5b0217905550600260019054906101000a900460ff1660019250925050611086565b6004600260016101000a81548160ff0219169083600581111561105b57fe5b0217905550600260019054906101000a900460ff1660009250925050611086565b5b42600881905550505b925092905056fea265627a7a723158203fab14798167fc399777b3cbe03d119e8b878410185d4e991b5a1e1d4a2d73c064736f6c63430005100032",
  "source": "// SPDX-License-Identifier: GPL-3.0\r\n\r\npragma solidity 0.5.16;\r\n//import \"https://github.com/pubkey/eth-crypto.git\";\r\n\r\ncontract Access_Control_Contract\r\n{\r\n   \r\n    struct Nes {\r\n        //next entry structure\r\n        \r\n        bytes32 filename;\r\n        uint encr_smk;\r\n        uint id;\r\n        bool read_permit;\r\n        bool write_permit;\r\n        address _address;\r\n        \r\n    }\r\n    \r\n    mapping(address => Nes) public patients;\r\n    mapping(address => Nes) public providers;\r\n    \r\n    enum status { requested_new_level, request_invalid, waiting_approval, approved, not_approved, inactive}\r\n    status pat_status;\r\n    status constant default_patstat = status.inactive;\r\n    status prov_status;\r\n    \r\n    enum ownership { owner, read, blind_read, undefined, access_other}\r\n    ownership pat_own;\r\n    ownership constant default_patown = ownership.read;\r\n    ownership prov_own;\r\n    ownership constant default_provown = ownership.owner;\r\n   \r\n    \r\n    address private _owner; //prc\r\n    Nes  nes;\r\n    bool read_permit = false;\r\n    bool write_permit = false;\r\n    uint last_update;\r\n    \r\n    constructor() public {\r\n    _owner = msg.sender;\r\n    \r\n    }\r\n    \r\n    modifier onlyOwner() {\r\n        require(msg.sender == _owner);\r\n        _;\r\n      }\r\n    \r\n    function assignPermission(bytes32 _filename , uint  id) public payable returns(ownership){\r\n        if (_filename == nes.filename )\r\n            if (id == nes.id){\r\n                pat_status = status.inactive;\r\n                pat_own = ownership.read;\r\n                nes.read_permit = true;\r\n            }\r\n             if (id == nes.id){\r\n                pat_status = status.inactive;\r\n                pat_own = ownership.owner;\r\n                nes.read_permit = true;\r\n                nes.write_permit = true;\r\n            }\r\n             if (id != nes.id && id != nes.id){\r\n                pat_status = status.inactive;\r\n                pat_own = ownership.blind_read;\r\n            }\r\n        else\r\n        { return ownership.undefined; }\r\n    }\r\n    \r\n    function assignPermission(bytes32 _filename , address _addr) public payable returns(ownership){\r\n        if (_filename == nes.filename )\r\n            if (_addr == nes._address){\r\n                pat_status = status.inactive;\r\n                pat_own = ownership.read;\r\n                nes.read_permit = true;\r\n            }\r\n             if (_addr == nes._address){\r\n                pat_status = status.inactive;\r\n                pat_own = ownership.owner;\r\n                nes.read_permit = true;\r\n                nes.write_permit = true;\r\n            }\r\n             if (_addr != nes._address && _addr != nes._address){\r\n                pat_status = status.inactive;\r\n                pat_own = ownership.blind_read;\r\n            }\r\n        else\r\n        { return ownership.undefined; }\r\n    }\r\n    \r\n    function isReadQualified(address _addr) public payable returns(bool){\r\n        bool allow = false;\r\n        if(_addr == nes._address && pat_own != ownership.undefined && pat_status == status.approved){\r\n            allow = true;\r\n        }\r\n        return allow;\r\n    }\r\n    \r\n    function isOwnQualified(address _addr) public payable returns(bool){\r\n        bool allow = false;\r\n        if(_addr == nes._address && prov_own == ownership.owner && pat_status == status.approved){\r\n            allow = true;\r\n        }\r\n        return allow;\r\n    }\r\n    \r\n    function isExtraQualified(address _addr) public payable returns(bool){\r\n        bool allow = false;\r\n        if(_addr == nes._address && prov_own == ownership.access_other && pat_status == status.approved){\r\n            allow = true;\r\n        }\r\n        return allow;\r\n    }\r\n    \r\n    function isBlReadQualified(address _addr) public payable returns(bool){\r\n        bool allow = false;\r\n        if(_addr == nes._address && prov_own == ownership.blind_read && pat_status == status.approved){\r\n            allow = true;\r\n        }\r\n        return allow;\r\n    }\r\n    \r\n    function requestFromPRC(bytes32 _filename , uint id)internal {\r\n        ownership cur_own;\r\n        cur_own = assignPermission(_filename,id);\r\n        sendEncSMKtoPRC();\r\n        last_update = block.timestamp;\r\n    }\r\n    \r\n    function requestFromPRC(bytes32 _filename , address _addrd)internal {\r\n        ownership cur_own;\r\n        cur_own = assignPermission(_filename,_addrd);\r\n        sendEncSMKtoPRC();\r\n        last_update = block.timestamp;\r\n    }\r\n    \r\n    function sendEncSMKtoPRC() internal view onlyOwner returns(uint _key){\r\n       if( pat_own != ownership.undefined && prov_own != ownership.undefined){\r\n            return _key = nes.encr_smk;\r\n       }\r\n    }\r\n    \r\n    function sendAddrsstoPRC() internal view returns(address _cont){\r\n        return address(this);\r\n    }\r\n    \r\n    function newAccessLevel (address _pradd, ownership prown) public payable onlyOwner returns(status prot,bool _given){\r\n        bool confirm = true;\r\n        \r\n        if(_pradd == nes._address){\r\n            \r\n            if(prown != prov_own){\r\n                \r\n                prov_status =status.requested_new_level;\r\n                last_update = block.timestamp;\r\n                //bool confirm = askPatient();\r\n                prov_status = status.waiting_approval;\r\n                \r\n                if (confirm == true){   \r\n                    prov_own = prown;\r\n                    prov_status = status.approved;\r\n                    return (prov_status,true);\r\n                    }\r\n                else\r\n                    prov_status= status.not_approved;\r\n                    return (prov_status,false);\r\n            }\r\n            \r\n        }\r\n        last_update = block.timestamp;\r\n    }\r\n    \r\n    function readfromAnother(address _pradA, address _pradB) public payable onlyOwner returns(status _prot, uint _key){\r\n        bool bool0;\r\n        bool bool01;\r\n        require(_pradA != _pradB);\r\n        bool01 = isExtraQualified(_pradA);\r\n        if (bool01 == true)\r\n            (_prot,bool0) = newAccessLevel(_pradB, ownership.access_other);\r\n        return (_prot,nes.encr_smk);\r\n    }\r\n    \r\n}",
  "sourcePath": "C:/Users/hp/Desktop/ACC/contracts/Access Contol Contract.sol.sol",
  "compiler": {
    "name": "solc",
    "version": "0.5.16+commit.9c3226ce.Emscripten.clang"
  },
  "schemaVersion": "3.4.1",
  "updatedAt": "2021-07-09T15:16:07.967Z",
  "devdoc": {
    "methods": {}
  },
  "userdoc": {
    "methods": {}
  }
}